:100000000C9423010C9442010C9442010C94420183
:100010000C9442010C9442010C9442010C94420154
:100020000C9442010C9442010C9442010C94420144
:100030000C9442010C9442010C9442010C94420134
:100040000C940F2D0C9442010C9442010C9442012B
:100050000C9442010C9417270C9442010C94420119
:100060000C9442010C94235B0C9442010C944201C9
:100070000C9442010C9442010C9442010C944201F4
:100080000C94E15B0C9442010C9442010C944201EB
:100090000C94525B0C9442010C9442010C9442016A
:1000A0000C9442010C9442010C9442010C944201C4
:1000B0000C9442010C9442010C9442010C944201B4
:1000C0000C9442010C9442010C944201206C6F6329
:1000D000616C2F72656D6F746520706F727420256E
:1000E000752F25750A004B6F6E656B746F76616EA8
:1000F000206E612073657276657220004E656D61B9
:1001000020554450206B6F6E656B63696A652C20C7
:10011000697A6C617A696D20697A2070726F6365A3
:100120007361210A0055445020636C69656E742028
:1001300070726F6365732073746172746F76616E31
:100140000A000A00436C69656E74204950763620B7
:100150006164647265737365733A20002530327888
:10016000003A002578003A003A3A00436F6E74690D
:100170006B6920322E3720737461727465642E208F
:100180004E6F64652069642025750A002530327839
:10019000253032780A0025303278253032783A001E
:1001A00054656E746174697665206C696E6B2D6C34
:1001B0006F63616C204950763620616464726573A8
:1001C00073200025732025732C206368616E6E6593
:1001D0006C20636865636B20726174652025642000
:1001E000487A2C20726164696F206368616E6E6565
:1001F0006C2025640A004D414320253032783A2591
:100200003032783A253032783A253032783A253013
:1002100032783A253032783A253032783A25303201
:10022000780A0025640A0025642E0052696D652055
:1002300073746172746564207769746820616464A2
:1002400072657373200011241FBECFEFD1E2DEBFB1
:10025000CDBF14E0A0E0B2E0ECE6F8EC00E00BBFAC
:1002600002C007900D92A63EB107D9F717E1A6EE9E
:10027000B4E001C01D92A835B107E1F70E94D22475
:100280000C9434640C940000A0E0B0E0EAE4F1E0E7
:100290000C943760FC01EA018081823008F438C197
:1002A000DB019C91923008F430C1843059F49430D1
:1002B00009F02EC1918111968C911197981709F030
:1002C00021C126C1943009F420C19230B1F48230AA
:1002D00009F01EC1CA01AF0128E0DA010D90AD019D
:1002E000DC010D92CD012150C1F7DB0111968C91FB
:1002F00011979181892389830AC1823009F405C14C
:10030000C280D380DB0112966D907C90139724817C
:100310003581468157811496ED90FD900D911C9189
:100320001797C601861997095C0197FF04C0AA2494
:10033000BB24A81AB90AB0E2AB16B1040CF061C034
:10034000181619066CF5370148010A2C04C096945A
:100350008794779467940A94D2F781E090E0A0E0C4
:10036000B0E00A2C04C0880F991FAA1FBB1F0A9473
:10037000D2F70197A109B1098E219F21A023B123B2
:10038000EE24FF248701E3940097A105B10519F439
:10039000EE24FF248701E628F728082919293CC004
:1003A0000097D1F1CA0CDB1C39014A010A2C04C0A8
:1003B00096948794779467940A94D2F781E090E0BA
:1003C000A0E0B0E00A2C04C0880F991FAA1FBB1F31
:1003D0000A94D2F70197A109B10982239323A42398
:1003E000B52321E030E040E050E00097A105B105E1
:1003F00019F420E030E0A901262937294829592994
:100400000BC06C147D0424F4EE24FF24870104C087
:10041000630120E030E0A9018181FB01918189170E
:1004200009F445C0882349F0D801C701821B930B0A
:10043000A40BB50B9C01AD0104C02E193F09400B64
:10044000510B57FD04C01982DB82CA820BC081E0C8
:100450008983DB82CA8250954095309521953F4F24
:100460004F4F5F4F2C833D834E835F830DC0880FBA
:10047000991FAA1FBB1F8C839D83AE83BF838A8174
:100480009B8101979B838A838C819D81AE81BF81F3
:100490009C01AD0121503040404050402F3FEFEFD4
:1004A0003E07EFEF4E07EFE35E0708F30BC08983CB
:1004B000DB82CA822E0D3F1D401F511F2C833D83BE
:1004C0004E835F8383E088832C813D814E815F81F1
:1004D00057FF1DC0DA01C90181709070A070B07023
:1004E0005695479537952795822B932BA42BB52BA3
:1004F0008C839D83AE83BF838A819B8101969B837E
:100500008A8305C0E2ECF2E003C0FB0101C0FE01FA
:10051000CF01CDB7DEB7EEE00C945360A0E2B0E0BF
:10052000E4E9F2E00C943F6069837A838B839C83D7
:100530002D833E834F83588789E0E82EF12CEC0E03
:10054000FD1ECE010196B7010E946E058E010F5E61
:100550001F4FCE010596B8010E946E05C701B80174
:10056000AE01475E5F4F0E9444010E94A004A09626
:10057000E6E00C945B60A0E2B0E0E1ECF2E00C9409
:100580003F6069837A838B839C832D833E834F8373
:1005900058878E01075F1F4FCE010196B8010E9458
:1005A0006E0591E1E92EF12CEC0EFD1ECE010596B3
:1005B000B7010E946E058A8991E089278A8BC8015C
:1005C000B701AE01475E5F4F0E9444010E94A00444
:1005D000A096E6E00C945B60A0E2B0E0E2EFF2E00F
:1005E0000C94336069837A838B839C832D833E8351
:1005F0004F835887CE010196BE01675F7F4F0E94EF
:100600006E05CE010596BE016F5E7F4F0E946E059E
:100610009985923078F089898230C0F0943019F44D
:10062000823041F4CBC0843019F4923079F4C6C0E2
:10063000923051F481E02A859A89291709F480E0E3
:100640008A87CE010996BCC0823051F481E02A85A8
:100650009A89291709F480E08A8BCE014196B0C0AF
:100660006D847E848F849888ED88FE880F89188D2C
:10067000E0E2F0E080E090E0DC01AA24BB24650128
:1006800020E030E0A901B30161707070611571055F
:10069000D1F02E0D3F1D401F511F15012601280EC0
:1006A000391E4A1E5B1E81E090E0A0E0B0E02E15EE
:1006B0003F054007510718F080E090E0DC01820D13
:1006C000931DA41DB51DAA0CBB1CCC1CDD1C17FF63
:1006D00009C061E0262E312C412C512CA228B328D0
:1006E000C428D528319749F0EE0CFF1C001F111FBC
:1006F0009694879477946794C6CF6B897C89EB85B1
:10070000FC856E0F7F1F6E5F7F4F7C8F6B8F61E06C
:10071000EA857A89E71709F460E06A8F6B8D7C8D32
:1007200010C0FC01E170F070309729F056954795A4
:10073000379527955068B695A795979587956F5FDC
:100740007F4FB7FDEECF0CC0880F991FAA1FBB1FAC
:1007500057FD8160220F331F441F551F61507040A9
:100760008030E0E09E07E0E0AE07E0E4BE0760F323
:100770006B8F7C8F6FE7E62EF12C012D112DE82277
:10078000F9220A231B2360E4E616F1040105110592
:1007900061F487FD0AC0211531054105510529F095
:1007A000805C9F4FAF4FBF4F80788D8F9E8FAF8FF4
:1007B000B8A383E0898FCE01499602C082EC92E013
:1007C0000E94A004A096E2E10C944F60A8E0B0E083
:1007D000ECEEF3E00C943F607B018C0183E08983B5
:1007E000D801C7018827B7FD83959927AA27BB277A
:1007F000282F8A83E114F1040105110519F482E020
:10080000898337C08EE190E09C838B83222389F01B
:1008100080E0E81680E0F80680E0080780E8180726
:1008200069F110950095F094E094E11CF11C011D14
:10083000111DED82FE820F831887C801B7010E9447
:1008400046049C01215030401216130694F4022EE7
:1008500004C0EE0CFF1C001F111F0A94D2F7ED829A
:10086000FE820F8318878EE190E0821B930B9C839E
:100870008B83CE0101960E94A00404C060E070E06A
:1008800080E09FEC2896E6E00C945B60AF92BF920C
:10089000CF92DF92EF92FF920F931F937B018C0117
:1008A00080E0E81680E0F80681E0080780E018079D
:1008B00058F4EFEFEE16F1040105110509F090F47C
:1008C00080E090E0DC0117C0F0E0EF16F0E0FF06FA
:1008D000F0E00F07F1E01F0750F480E190E0A0E0A6
:1008E000B0E009C088E090E0A0E0B0E004C088E19A
:1008F00090E0A0E0B0E020E230E040E050E0281BD3
:10090000390B4A0B5B0B5701680104C0D694C7949E
:10091000B794A7948A95D2F7D601C50186539D4F07
:10092000FC018081281B310941095109C9011F912E
:100930000F91FF90EF90DF90CF90BF90AF90089510
:10094000EF92FF920F931F93CF93DF93FC012481CB
:1009500035814681578161818081823020F44061F8
:10096000EFEFF0E0A3C0843009F49BC0823009F4BB
:1009700092C0211531054105510509F48FC002804F
:10098000F381E02D8FEFE238F8070CF05AC0C2E88F
:10099000DFEFCE1BDF0BCA31D1056CF579018A017F
:1009A0000C2E04C016950795F794E7940A94D2F795
:1009B00081E090E0A0E0B0E00C2E04C0880F991F09
:1009C000AA1FBB1F0A94D2F70197A109B10982237C
:1009D0009323A423B52321E030E040E050E00097CA
:1009E000A105B10519F420E030E0A9012E293F2925
:1009F000402B512B03C020E030E0A901DA01C901EE
:100A00008F779070A070B07080349105A105B1050A
:100A100039F427FF09C0205C3F4F4F4F5F4F04C0A0
:100A2000215C3F4F4F4F5F4FE1E0F0E0203080E02E
:100A3000380780E0480780E4580728F5E0E0F0E058
:100A400022C0E038F1056CF5E158FF4FDA01C90129
:100A50008F779070A070B07080349105A105B105BA
:100A600039F427FF09C0205C3F4F4F4F5F4F04C050
:100A7000215C3F4F4F4F5F4F57FF05C0569547953D
:100A800037952795319687E0569547953795279561
:100A90008A95D1F70BC0E0E0F0E005C0E0E0F0E0BF
:100AA00005C0EFEFF0E020E030E0A9018E2F879540
:100AB00088278795942F9F77679566276795E69592
:100AC000E22EA92FA82BFE2FF62B622F732F8A2F31
:100AD0009F2FCDB7DEB7E6E00C945B60DC01FB0135
:100AE0002C9111963C91119712968C911297482F48
:100AF0004F7750E0982F991F9927991F13966C9163
:100B00001397862F880F892B90E0661F6627661F34
:100B10006183009739F5211531054105510511F41F
:100B200082E029C082E89FEF9383828367E0220FEF
:100B3000331F441F551F6A95D1F783E0808309C096
:100B4000220F331F441F551F828193810197938386
:100B50008283203080E0380780E0480780E458072F
:100B600078F320C08F3F910579F4211531054105B7
:100B7000510519F484E08083089544FF03C081E0A7
:100B8000808310C010820EC08F5790409383828361
:100B900083E0808387E0220F331F441F551F8A950F
:100BA000D1F75064248335834683578308956F9229
:100BB0007F928F929F92AF92BF92CF92DF92EF92ED
:100BC000FF920F931F93DF93CF93CDB7DEB760975C
:100BD0000FB6F894DEBF0FBECDBF6C01FC01808163
:100BE0009181009729F08239910509F01EC103C156
:100BF0008AEA9AEA9A8389831C821B821E821D825A
:100C000018861F821A8619861C861B861E861D86DC
:100C1000188A1F868E010F5F1F4FC80162EB72E1B9
:100C20000E94C813C80140E050E0BA0121E00E94D0
:100C3000BC128EEF90E8909301058093000510920E
:100C400003051092020510920505109204051092FA
:100C500007051092060582E09AE1909309058093BA
:100C600008058CE490E090930B0580930A0583E1DE
:100C700093EE90930D0580930C0589E690E6909392
:100C80000F0580930E0500D085E291E0EDB7FEB729
:100C9000928381830E94096184E491E0EDB7FEB7FD
:100CA000928381830E94096101E811E10F900F9006
:100CB000EE24FF249CE1A92EB12C82E4882E81E051
:100CC000982E66246394F801718880818823D9F076
:100CD000F72DF230C0F4EA9CC001EB9C900DFA9C19
:100CE000900D11248E579E4E0E948F0C00D0EDB7B0
:100CF000FEB7928281820E9409610F900F90772047
:100D000011F4F801618A0894E11CF11C045E1F4F84
:100D1000F3E0EF16F104B9F680E090E064E072EDE4
:100D200040E050E00E94340A9093E7048093E60488
:100D3000009781F400D08CEF90E0EDB7FEB792837E
:100D400081830E940961F601118210820F900F9039
:100D500082E06FC020E131EEFC01318B208B00D0AE
:100D600086EE90E0EDB7FEB7928381830E94096121
:100D70000F900F908091E6049091E7040E948F0CF1
:100D8000A091E604B091E70400D000D000D04DB7A8
:100D90005EB74F5F5F4F8CEC90E0EDB7FEB792838C
:100DA000818350968D919C915197982789279827F8
:100DB000FA019383828352968D919C915397982741
:100DC00089279827958384830E9409618DB79EB7F0
:100DD00006960FB6F8949EBF0FBE8DBF88EF94E0C5
:100DE00060E075E00E94B60882E990E0F601918328
:100DF000808381E01EC088EF94E00E94D7080097AE
:100E000099F388EF94E00E94C1080E94170A60E0FD
:100E100075E00E94EA5FBC0188EE94E04EE257E084
:100E200020E030E00E949F09DFCFF601118210829E
:100E300083E060960FB6F894DEBF0FBECDBFCF91B2
:100E4000DF911F910F91FF90EF90DF90CF90BF90B7
:100E5000AF909F908F907F906F900895AF92BF92C8
:100E6000CF92DF92EF92FF920F931F93DF93CF9376
:100E7000CDB7DEB7E2970FB6F894DEBF0FBECDBF99
:100E80000E948B240E9475285C010E948B240E9482
:100E90006A286C010E945F282DB73EB72E50304063
:100EA0000FB6F8943EBF0FBE2DBF0DB71EB70F5F34
:100EB0001F4F7E010894E11CF11CEDB7FEB7F282D2
:100EC000E18220E032E0F8013383228321E030E048
:100ED00035832483D782C68291878087B50188278E
:100EE00077FD8095982F0E94E6039B01AC0166E692
:100EF00076E686E690E40E94BB0220E030E040E225
:100F000051E40E94EC029B01AC0160E070E088ECCF
:100F100092E40E94BB02F8016287738784879587F9
:100F20000E942961F70101900020E9F7AF014150CB
:100F300050404E195F092DB73EB7225F3F4F0FB6A5
:100F4000F8943EBF0FBE2DBF8091E6049091E70458
:100F5000B70120E035E004E012ED0E945119E2965D
:100F60000FB6F894DEBF0FBECDBFCF91DF911F91BA
:100F70000F91FF90EF90DF90CF90BF90AF900895CA
:100F80008091100590911105009729F41092130596
:100F90001092120508950E94F226E0911005F0913A
:100FA00011052281338140815181240F351F281B77
:100FB000390B0CC04281538160817181460F571FEC
:100FC000481B590B4217530708F49A010480F58116
:100FD000E02D309779F7280F391F309313052093B0
:100FE0001205089588ED93E00E94BE480895CF92BF
:100FF000DF92EF92FF920F931F93CF93DF937C01C9
:10100000FC0180819181009729F08935910509F0D3
:101010006EC00BC0109211051092100589E590E08A
:10102000F7019183808381E066C0673849F5CA0182
:10103000E0911005F091110503C00480F581E02DC9
:10104000309741F32681378128173907B1F3E093B0
:101050001005F09311050FC016962D913C9117972E
:101060002817390739F414962D913C91159735833B
:101070002483DF01FD01A481B581109769F7CECFEC
:10108000623861F6C0911005D091110500E010E0C2
:101090002BC0CE010E9494490097F1F08E819F8170
:1010A00068E8AE010E9461480097A1F41F821E8289
:1010B0008C819D810115110521F0F80195838483B0
:1010C00004C090931105809310051D821C820E941C
:1010D000C007D8CF0E94F2078E019C818D81C92E56
:1010E000E6016E01D82EE601209799F697CFF70119
:1010F0001182108283E0DF91CF911F910F91FF90B9
:10110000EF90DF90CF900895CF93DF93EC010E9492
:10111000F2078E819F810097A1F0E0911005F09178
:1011200011050DC0EC17FD0739F48091E30990918A
:10113000E4099783868315C00480F581E02D3097FC
:1011400089F78091E3099091E4099F838E838091D0
:101150001005909111059D838C83D0931105C09348
:1011600010050E94C007DF91CF910895CF93DF93C0
:10117000EC010E947449CE010E948408DF91CF9156
:101180000895CF93DF93EC010E948049CE010E9425
:101190008408DF91CF910895CF93DF93EC010E94F3
:1011A0008A49CE010E948408DF91CF91089521E001
:1011B00030E0FC0186819781009711F020E030E05B
:1011C000C9010895FC012281338180819181280F1A
:1011D000391FC901089521E030E0809110059091F8
:1011E0001105009711F420E030E0C9010895CF9374
:1011F000DF93EC01E0911005F09111058E179F0728
:1012000041F48C819D81909311058093100514C049
:10121000FC01309731F0848195818C179D07C1F7CF
:1012200007C01D821C821F821E82DF91CF9108950C
:101230008C819D81958384830E94C007F2CFCF92D9
:10124000DF92EF92FF920F931F93CF93DF938C0166
:101250007A01FC0180819181009729F08A349105FF
:1012600009F051C01EC085E195E00E94AF49C82E2B
:10127000E6017E01F92EE70109C06C817D81CE0176
:1012800002960E94B6080990D881C02D2097A9F730
:1012900081E0809314058AE490E0F80191838083D3
:1012A00037C06838A9F585E195E00E94AF49C82E9E
:1012B000E6016E01D92EE60123C0CE010296E816A2
:1012C000F906D9F485E195E0BE010E94C549E09098
:1012D000E309F090E4098A859B859093E409809363
:1012E000E309EC85FD85309719F08E859F8509957A
:1012F000F092E409E092E309CECF0990D881C02DA5
:101300002097D9F6C8CFF8011182108283E001C07E
:1013100081E0DF91CF911F910F91FF90EF90DF90CF
:10132000CF9008951092140585E195E00E94AB4995
:1013300082EE93E060E070E00E949B4808950F9376
:101340001F93CF93DF93EC010091E3091091E4091F
:101350001B870A875D874C873F872E8780911405FE
:10136000882379F082EE93E09093E4098093E30977
:10137000CE0102960E94B6081093E4090093E30997
:1013800002C07D836C8385E195E0BE010E94C54962
:1013900085E195E0BE010E94FE49DF91CF911F914A
:1013A0000F9108950F931F93CF93DF93EC018091DA
:1013B0001405882391F00091E3091091E40982EE6D
:1013C00093E09093E4098093E309CE0102960E9492
:1013D000C1081093E4090093E30985E195E0BE019B
:1013E0000E94C54985E195E0BE010E94FE49DF915A
:1013F000CF911F910F910895CF93DF93EC018091CE
:101400001405882329F0CE0102960E94F70804C033
:101410001F821E821986188685E195E0BE010E9412
:10142000C549DF91CF9108950E94BD6008950E9443
:10143000B860089589E395E00E94D708009721F0ED
:1014400089E395E00E94CC080895E0914405F0916D
:101450004505309711F00995089580E0089590931F
:101460004505809344050895CF93DF93EA010E94D8
:101470003D1BFC01009741F08091E3099091E40944
:10148000968B858BD08FC78BCF01DF91CF9108953D
:101490008CEE93E062E040E050E00E948C481092B5
:1014A000AB121092AA121092560808950F931F9330
:1014B000CF93DF938091AA129091AB12009709F419
:1014C000C6C025E08130920708F0B2C002ED12E1FB
:1014D0008091D2129091D312009759F58091D41235
:1014E0009091D512009729F58091D6129091D7123C
:1014F0000097F9F48091D8129091D9120097C9F40D
:101500008091DA129091DB12009799F48091DC12AD
:101510009091DD12009769F48091DE129091DF12B4
:10152000009739F48091E0129091E112009709F44C
:101530007FC08091D2128F3F09F47FC082ED92E18B
:101540000E940B12882311F582ED92E10E94CD0DCD
:10155000EC01009731F40E94880F8C010097B1F4E0
:1015600067C00E946A0D8C01009781F4E88DF98DA7
:10157000309741F0038CF48DE02DE558FF4F8081CA
:101580000E940438CE010E94840E61C0C8010E94EE
:101590008046009709F04CC0C8010E943D10EC0144
:1015A000009789F5C80160E070E040E020E00E940B
:1015B000F10FEC010097E1F182EC92E10E943B1205
:1015C000009719F082EC92E102C080E090E060E0C8
:1015D00070E0AE010E943F1760917C1170917D1107
:1015E00080917E1190917F1128EE33E040E050E031
:1015F0000E941160CE014896BA01A9010E94594A81
:1016000081E088A324C08AA1882391F0823059F414
:1016100083E08AA3CE01409645E050E060E070E0B0
:101620000E94594A18A2CE010E9435100E94250A34
:101630001092AB121092AA120AC080E090E00E94B1
:10164000250A1092AB121092AA1210925608DF913E
:10165000CF911F910F910895EF92FF920F931F93D7
:10166000CF93DF93EC018A0188819981009731F053
:1016700023E08A33920709F005C12DC080E00BC03A
:10168000E82FF0E0EE0FFF1FEE0FFF1FE95EFA4FAD
:10169000118210828F5F883098F38093410580918A
:1016A000E3099091E40990933805809337050E94EF
:1016B000DF478093661189E395E060E470E00E9463
:1016C000B6080E94C71A0E94D4328AE393E0998335
:1016D000888381E0DAC0623009F4B6C0633030F448
:1016E000662309F495C0613081F7A2C0673819F00C
:1016F000683859F741C01092420597E1E92E95E00C
:10170000F92E18C0F701828193818017910749F45F
:10171000808191810E94C01BF70111821082138287
:10172000128284E090E0E80EF91E809142058F5FFE
:101730008093420580914205883020F3E8EDF3E183
:10174000838194818017910719F414821382108287
:10175000BC9694E1E838F90799F7E5E7F4E1858963
:1017600096898017910711F4118A108A799625E1DC
:10177000E13AF207A1F7A9CF85E049335807D1F53F
:10178000CA010E94D7080097A9F1109242058CE285
:10179000E82EF12C2BC090E08E9DF0018F9DF00D76
:1017A0009E9DF00D1124ED54FC4E85A18823C9F0B7
:1017B00089E395E00E94CC082091420530E02E9DFF
:1017C000C0012F9D900D3E9D900D11248D549C4E77
:1017D0009093B2138093B11382E00E94DA1B0E94AF
:1017E000560A809142058F5F8093420580914205A1
:1017F000843088F292E1023A190709F066CFC801F5
:101800000E94D708009709F460CF0E94991337C04F
:101810004115510509F459CF5093B2134093B113B8
:1018200083E00E94DA1B0E94560A0E941A0A4DCFDA
:101830004115510509F449CF5093AE134093AD13B0
:1018400085E00E94DA1B1BC08091AA129091AB1216
:10185000009709F43ACF8091C012863031F480911C
:10186000EF1281FF02C00E941A0A81E00E94DA1B77
:101870008091AA129091AB12009709F426CF0E9492
:10188000560A23CF1982188283E0DF91CF911F91EE
:101890000F91FF90EF900895CF93DF93A091B11334
:1018A000B091B213109719F0ED01A89605C0C09140
:1018B000AD13D091AE1365968091AA1386FF22C016
:1018C0001092430540E0E7E1F5E016C02081318148
:1018D00050968D919C9151972817390759F4828120
:1018E0009381009739F040934305998388831B8245
:1018F0001A8206C034964F5F483040F34093430548
:101900000E941A0A88819981009731F04A815B818F
:10191000609166110E948C48DF91CF9108954F929B
:101920005F926F927F928F929F92AF92BF92CF926F
:10193000DF92EF92FF920F931F93CF93DF93009765
:1019400061F400D08DE692E0EDB7FEB7928381831B
:101950000E94F7600F900F905BC08C01C0E0D0E058
:10196000CC24DD2423E6822E21E0922E96E6692EF9
:1019700091E0792E88E6482E81E0582E01C0E701DB
:10198000F801B080AA2481817501E80EF11CE114F0
:10199000F10491F4D7FD13C07E010894E11CF11C01
:1019A000209759F500D0EDB7FEB7528241820E94D0
:1019B00009610F900F9021C01C161D066CF0C11418
:1019C000D10461F000D0EDB7FEB7728261820E944F
:1019D00009610F900F9002C0CFEFDFEF00D000D071
:1019E000EDB7FEB792828182F482E3820E940961A0
:1019F0000F900F900F900F907E0182E090E0C80E44
:101A0000D91E0E5F1F4F90E1C916D10409F0B7CF60
:101A1000DF91CF911F910F91FF90EF90DF90CF90CA
:101A2000BF90AF909F908F907F906F905F904F90FE
:101A30000895AF92BF92CF92DF92EF92FF920F93F1
:101A40001F93CF93DF938C017B016A018AE495E0B9
:101A50000E94AF4916C00230110530F486E495E0CB
:101A60000E941D4A9C0104C02091480530914905FF
:101A7000EA81FB81C801B701A6010995CE010E9448
:101A80002D4AA82EE5015E01B92EE501209719F730
:101A9000DF91CF911F910F91FF90EF90DF90CF904A
:101AA000BF90AF90089586E094E00E94E1488EEFE9
:101AB00093E06BED7EE00E948B4B86EF93E00E94FB
:101AC000E14886E495E00E94AB498AE495E00E94F3
:101AD000AB490895009759F0FC01628173818EEF44
:101AE00093E00E943A4D0E947A109C0102C020E0CF
:101AF00030E0C9010895EF92FF92CF93DF938EEF0C
:101B000093E00E94D04BE82EE7017E01F92EE70119
:101B1000209759F08A819B810E94AF498A819B81DD
:101B20000E94AF49282F392F02C020E030E0C901C0
:101B3000DF91CF91FF90EF900895EF92FF920F9376
:101B40001F93CF93DF938C010097E9F00E942D4AF9
:101B5000E82EE7017E01F92EE7012097B1F4F801A4
:101B6000628173818EEF93E00E94AD4BFC01009780
:101B700061F0828193810E94AF49E82EE7017E01E6
:101B8000F92EE70102C0C0E0D0E0CE01DF91CF9195
:101B90001F910F91FF90EF900895CF92DF92EF92F7
:101BA000FF920F931F93CF93DF937C010E947B0DD5
:101BB000EC01CC2400E010E016C0DC8CDC1478F0E2
:101BC000BE016C5F7F4F4D2D469546954695C701EA
:101BD00050E00E94C860009711F4CD2C8E01CE0118
:101BE0000E949D0DEC01209741F7C801DF91CF9134
:101BF0001F910F91FF90EF90DF90CF9008956F921B
:101C00007F929F92AF92BF92CF92DF92EF92FF921C
:101C10000F931F93CF93DF936C01962E5A01CA0145
:101C20000E947D107C01009709F45DC0C6010E94EE
:101C3000CD0D8C010097E1F58EEF93E0B7010E9486
:101C4000D34C682EE3013E01792EE3012097A1F4E5
:101C50008EEF93E0B7010E94EF4BEC013E01792E2D
:101C6000E301209709F441C093016A823B83198202
:101C70001882C3010E94AB4986E094E00E940149AA
:101C8000082F192F0115110581F18A819B81B80157
:101C90000E94FE49809148059091490501969093D4
:101CA000490580934805D8011396DC93CE9312978B
:101CB000D80114968C2D9D2DFC0180E101900D9290
:101CC0008150E1F7F801948EC8014496FC0188E048
:101CD000DF011D928A95E9F782E090E0B601A50147
:101CE0000E94190D02C000E010E0C801DF91CF9101
:101CF0001F910F91FF90EF90DF90CF90BF90AF902A
:101D00009F907F906F900895CF93DF93EC010097A1
:101D100091F1EA81FB81309771F182819381BE015B
:101D20000E94C549EA81FB81828193810E94AF496B
:101D3000009741F4EA81FB81628173818EEF93E029
:101D40000E94054D86E094E0BE010E9427498091E3
:101D5000480590914905019790934905809348055E
:101D6000CE010E946A0DAC01BE016C5F7F4F83E023
:101D700090E00E94190DDF91CF910895CF93DF93EA
:101D8000EC010097A9F08A819B81009729F410C08B
:101D90000E94840E8A819B810E94AF49282F392F8F
:101DA000C9010097A9F78EEF93E0BE010E94054D8F
:101DB000DF91CF9108950E94BE0E0895EF92FF9299
:101DC0000F931F93CF93DF938C0186E495E00E94DD
:101DD000AF4919C0C017D10799F486E495E0BE0158
:101DE0000E94C54986EF93E0BE010E942749AE01DB
:101DF0004E5F5F4F81E090E0BA010E94190D0AC06A
:101E0000CE010E942D4AE82EE7017E01F92EE7015E
:101E1000209701F7DF91CF911F910F91FF90EF90E5
:101E20000895EF92FF920F931F93CF93DF938C014E
:101E300086E495E00E94AF49292FE82EE7010EC005
:101E4000CE010296B80140E150E00E94C8600097C0
:101E500051F0CE010E942D4A292FEC017E01F22E75
:101E6000E701209769F7CE01DF91CF911F910F9184
:101E7000FF90EF900895AF92BF92CF92DF92EF92D2
:101E8000FF920F931F93CF93DF936C017A018B0125
:101E90000E94110FEC01009781F486EF93E00E94FD
:101EA0000149A82EE5015E01B92EE501209721F137
:101EB00086E495E0B5010E94EA49DE0112968C2D78
:101EC0009D2DFC0180E101900D928150E1F7E1141C
:101ED000F1040105110541F0CE014296B801A701B8
:101EE0000E94594A1A8E02C081E08A8F80E090E0F9
:101EF000B601A6010E94190DCE01DF91CF911F916D
:101F00000F91FF90EF90DF90CF90BF90AF9008952A
:101F1000EF92FF920F931F93CF93DF9386E495E0A8
:101F20000E94AF49082F192FC0E0D0E010C0E8018F
:101F30002296CE010E943D10009721F0FC0182A163
:101F4000882341F4C8010E942D4A082F192F01153A
:101F5000110569F7CE01DF91CF911F910F91FF908D
:101F6000EF900895EF92FF92CF93DF930CC08A8D8C
:101F7000882371F4CE0142960E94694A009741F08D
:101F8000CE010E94DE0E86E495E00E94AF4903C0B8
:101F9000CE010E942D4AE82EE7017E01F92EE701CD
:101FA000209729F7DF91CF91FF90EF900895CF937D
:101FB000DF93EC01009749F00E94C03280910E043B
:101FC00090910F04BE010E94054DDF91CF910895BD
:101FD00080910E0490910F0467ED7FE00E948B4B7F
:101FE0000895CF92DF92EF92FF920F931F93DF93AA
:101FF000CF9300D0CDB7DEB78C0180910E049091C5
:102000000F042A8349830E94EF4B6C012A81498186
:102010000097F9F0DC01802F912FFC0180E1019005
:102020000D928150E1F7F60141A322A3C60140962B
:1020300040E050E0BA010E94594AC601489640E08B
:1020400050E0BA010E94594AF60110A2C6010E944E
:10205000C032C6010F900F90CF91DF911F910F9169
:10206000FF90EF90DF90CF900895BC0180910E0417
:1020700090910F040E943A4D0895EF92FF920F93B2
:102080001F93CF93DF938C0180910E0490910F04E6
:102090000E94D04B01151105D9F0292FE82EE70138
:1020A00011C0CE01B80140E150E00E94C860009725
:1020B00089F080910E0490910F04BE010E94AD4BF7
:1020C000292FEC017E01F22EE701209751F702C083
:1020D000C0E0D0E0CE01DF91CF911F910F91FF9032
:1020E000EF900895BC0180910E0490910F040E941E
:1020F000D34C08950E94721008950E943D100097DD
:1021000021F00E9435109C0102C020E030E0C9019E
:1021100008950F931F93CF93DF93EC018B018DEF05
:1021200096E161EA74E00E94982D009731F48DEFFA
:1021300096E1BE01A8010E946932DF91CF911F9103
:102140000F9108958F929F92AF92BF92CF92DF929C
:10215000EF92FF920F931F93CF93DF9380910E0422
:1021600090910F040E94D04B882EE4017E01F92E3D
:10217000E70122E0B22E98EEC92E93E0D92EE12C91
:10218000F12C84E0A82E84C08AA1813041F08130F6
:1021900078F0833049F1843009F06FC034C0CE014B
:1021A00040960E94694A009709F467C0BAA265C0C8
:1021B00088A18330B0F58E01085E1F4FC8010E94D0
:1021C000694A009709F459C08091AA129091AB1204
:1021D000009709F052C088A18F5F88A380E090E04B
:1021E00060E070E0AE0136C0CE0140960E94694AC0
:1021F000009709F442C0AAA218A2CE01489640E076
:1022000050E0BA0138C088A1833078F0CE010E9436
:10221000110F009731F0FC01228D222311F40E944E
:10222000DE0ECE010E94D70F28C08E01085E1F4F20
:10223000C8010E94694A009701F18091AA12909109
:10224000AB120097D1F488A18F5F88A380E090E063
:10225000BE01AE010E943F1760917C1170917D110B
:1022600080917E1190917F11A70196010E941160CB
:10227000C801BA01A9010E94594A80910E049091A7
:102280000F04BE010E94AD4BEC014E01992EE401FA
:10229000209709F079CFDF91CF911F910F91FF9097
:1022A000EF90DF90CF90BF90AF909F908F90089568
:1022B0008F929F92AF92BF92CF92DF92EF92FF9256
:1022C0000F93CF93DF935A014901F70111821082D6
:1022D00070E0469F6001479FD00C569FD00C1124A0
:1022E000C80ED91E069506950695EC0116C0888184
:1022F000882371F0CE010196B401402F50E00E9476
:10230000C860009741F4F701D183C08380E010C01A
:10231000F701D183C083CA0DDB1DCC15DD0538F371
:10232000F70180819181009711F081E001C082E086
:10233000DF91CF910F91FF90EF90DF90CF90BF9002
:10234000AF909F908F9008952F923F924F925F92FF
:102350006F927F928F929F92AF92BF92CF92DF92B5
:10236000EF92FF920F931F93DF93CF930F92CDB70E
:10237000DEB7882E792E962E642E722F1701280133
:102380008EE492E163E04CE150E0282D372D092DD9
:10239000EAE4EE2EE8E0FE2E79830E94581179815E
:1023A000813011F5E0914A08F0914B088083E0916B
:1023B0004A08F0914B083196882D972DDC0180E179
:1023C0000D9001928150E1F7E0914A08F0914B089D
:1023D000918A628A738F238A348A458A568AA78AA9
:1023E000B08EC18ED28E02C0E0E0F0E0CF010F903F
:1023F000CF91DF911F910F91FF90EF90DF90CF90E1
:10240000BF90AF909F908F907F906F905F904F9014
:102410003F902F9008950F931F93CF93DF938C01DC
:102420008EE492E190934B0880934A0814C088810F
:10243000882361F04989469546954695CE010196D7
:10244000B80150E00E94C860009779F06C96D09374
:102450004B08C0934A08C0914A08D0914B0882E1CA
:10246000C23AD80720F380E001C081E0DF91CF912C
:102470001F910F910895EF92FF920F939C0181E8B5
:1024800091E163E04CE150E000E8A6E3EA2EA8E029
:10249000FA2E0E945811882329F420913608309191
:1024A000370802C020E030E0C9010F91FF90EF90A3
:1024B000089521E831E13093370820933608282F1A
:1024C000332727FD309515C09081992369F08F3F00
:1024D00029F0418950E04217530731F491819E3F22
:1024E00019F49281903879F07C96F0933708E09354
:1024F0003608E0913608F091370891E1E53DF9079B
:1025000018F3E0E0F0E0CF010895DF92EF92FF9240
:102510000F931F93182FD92E87EF91E165E041E1CA
:1025200050E0212F3D2D00E8B8E3EB2EB8E0FB2E64
:102530000E9458118130B9F4E0913808F0913908BF
:102540008083E0913808F09139083196812F9D2DD4
:10255000DC0180E10D9001928150E1F72091380873
:102560003091390802C020E030E0C9011F910F917D
:10257000FF90EF90DF900895AF92BF92CF92DF92DD
:10258000EF92FF920F931F93CF93DF93EC015A01C9
:102590006B01122F81E891E163E04CE150E09E0174
:1025A00000E876E3E72E78E0F72E0E94581181309C
:1025B00009F058C0E0913608F09137088083E09127
:1025C0003608F09137083196DE0180E10D900192D6
:1025D0008150E1F7E0913608F0913708128BA11491
:1025E000B104C104D10419F481E0838B07C0138ABC
:1025F000CF014496B601A5010E94594AE0913608E0
:10260000F091370891E0918B8FEF80933A0822E0A8
:1026100020933B0810923D0810923C0810923F080E
:1026200010923E0810924108109240081092430800
:1026300010924208109244089093450880934608EF
:102640008D85809347088E859F8590934908809358
:1026500048088AE398E00E9485122091360830915C
:10266000370802C020E030E0C901DF91CF911F910F
:102670000F91FF90EF90DF90CF90BF90AF900895B3
:10268000EF92FF920F939C0187EF91E165E041E1AA
:1026900050E000E8E8E3EE2EE8E0FE2E0E9458113C
:1026A000882329F4209138083091390802C020E0AD
:1026B00030E0C9010F91FF90EF900895CF93DF9321
:1026C000EC01009799F18FEF80933A0892E0909394
:1026D0003B0810923D0810923C0810923F0810925F
:1026E0003E08109241081092400810924308109240
:1026F00042081092440891E0909345088093460860
:102700008E85809347088F85988990934908809398
:1027100048088AE398E00E94401390933908809318
:102720003808009711F0FC0110821882DF91CF91D8
:10273000089581E891E117C08081882379F0838929
:10274000882361F4CF0144960E94694A009731F0D2
:1027500080913608909137080E945E138091360868
:10276000909137084C969093370880933608E09103
:102770003608F091370881E1E53DF807E8F20E945C
:10278000B20F0E94A21082EA92E10E94C10808954D
:10279000CF93DF93FC01EC012896862F972FDC0165
:1027A00088E00D9009928150E1F7808592E08927B9
:1027B0008087DF91CF910895282F392FD901862F57
:1027C000972FFC0180E02D919191382F385F2917C8
:1027D00021F4832F3038B9F70895922797FD05C06B
:1027E0008F5F831711F0990FF9CF0895BF92CF92A1
:1027F000DF92EF92FF920F931F93CF93DF93EC0141
:102800006B01FB0180818E3F21F48181803819F4B6
:1028100032C08F3F81F181E891E190933708809336
:102820003608EE24FF24BB241DC0F80180818823D4
:1028300099F08189813081F481818E3F19F4828100
:10284000803851F0B8016F5F7F4FC6010E94DC13E2
:102850008B1510F07801B82E045E1F4F10933708C7
:10286000009336080091360810913708F1E1053DD4
:102870001F07D8F204C081E00E9459127C01E114C4
:10288000F10489F4198218821B821A821D821C822B
:102890001F821E82198618861B861A861D861C8634
:1028A0001F861E8607C0F701319680E101900992CC
:1028B0008150E1F7DF91CF911F910F91FF90EF9041
:1028C000DF90CF90BF900895DF92EF92FF920F9329
:1028D0001F930E94170AD82E0E94170AE0907411C5
:1028E000F090751100917611109177117D2D60E0B7
:1028F000680F791F80E090E0A80197010E941160A5
:102900009B01AC0116950795F794E7942E0D3F1D9A
:10291000401F511FB901CA011F910F91FF90EF9005
:10292000DF900895AF92BF92CF92DF92EF92FF9225
:102930000F931F93CF93DF930E94E80F0E94530DD4
:1029400084E5EEE4F2E1DF011D928A95E9F78DED71
:10295000EFE6F1E1DF011D928A95E9F78CE18093C2
:102960004D1282E180934C1280E095E0A0E0B0E04F
:1029700080936F1190937011A0937111B0937211A5
:1029800080E48093731180EC97E2A9E0B0E080933B
:10299000741190937511A0937611B09377110E94E2
:1029A0006414609378117093791180937A119093E5
:1029B0007B1180E197E2A0E0B0E080937C119093DE
:1029C0007D11A0937E11B0937F1110928011CAE304
:1029D000D8E08EEF90E890933B0880933A081092ED
:1029E0003D0810923C0810923F0810923E08109249
:1029F000410810924008CE0160E440E020E0EE245F
:102A0000FF248701AA24BB2465010E94A411CE01E2
:102A100062EB72E10E94C813CE0140E050E0BA01BF
:102A200021E00E94BC120FEF12E010933B080093CC
:102A30003A0810923D0810923C0810923F081092FC
:102A40003E081092410810924008109243081092DC
:102A500042081092450810924408109247081092BC
:102A6000460880E091E09093490880934808CE01A1
:102A70000E94851210933B0800933A0810923D087B
:102A800010923C0810923F0810923E0810924108A4
:102A90001092400810924308109242081092450884
:102AA00010924408109247081092460880E092E085
:102AB0009093490880934808CE010E94851282EACB
:102AC00092E16CE070E00E94B608DF91CF911F9117
:102AD0000F91FF90EF90DF90CF90BF90AF9008954F
:102AE000CF93DF93FC01608382E08183EF01229624
:102AF000A2EBB2E188E00D9009928150E1F73A969D
:102B000086E011928A95E9F7DF91CF910895FF92BF
:102B10000F931F93CF93DF938091C1128F3F09F0E2
:102B2000A4C1E0915608F0E0E654FD4E80A98F3F25
:102B300009F49BC181A5882309F097C110924E0822
:102B400010924D0884E180934C0812E08EC0F90188
:102B5000E654FD4E8181882309F487C1808181304C
:102B600009F073C0F0934E08E0934D088091C212B3
:102B70009091C312009759F58091C4129091C5129B
:102B8000009729F58091C6129091C7120097F9F429
:102B90008091C8129091C9120097C9F48091CA120D
:102BA0009091CB12009799F48091CC129091CD1214
:102BB000009769F48091CE129091CF12009739F46A
:102BC0008091D0129091D112009709F44EC182ECFD
:102BD00092E10E943D109093520880935108009713
:102BE00069F460914D0870914E086E5F7F4F82ECE2
:102BF00092E140E022E00E94F10F27C00E943510D0
:102C0000F82E092FC0914D08D0914E082296CE0182
:102C10006F2D702F48E050E00E94C860009769F067
:102C20008F2D902FFC0188E0099001928150E1F7EF
:102C3000E0915108F091520807C0E0915108F091DD
:102C4000520882A1882309F412A390914C08E091C4
:102C50005608F0E0E654FD4EE90FF11D85A5880FFA
:102C6000880F880F890F80934C088091560890E058
:102C700020914C08AC01420F511D9A01245D3F4F39
:102C80004091AA125091AB122417350708F45FCF78
:102C900086519D4E0E943B129093500880934F089E
:102CA000009709F4E2C08091C2129091C31200977C
:102CB00059F58091C4129091C512009729F5809121
:102CC000C6129091C7120097F9F48091C8129091A2
:102CD000C9120097C9F48091CA129091CB12009743
:102CE00099F48091CC129091CD12009769F4809163
:102CF000CE129091CF12009739F48091D01290911A
:102D0000D112009709F4B1C082EC92E10E943B120B
:102D1000009709F0AAC08091D2128F3F09F03EC0FF
:102D20008091D3128230D1F58091D4129091D51236
:102D30000097A1F58091D6129091D712009771F566
:102D40008091D8129091D912009741F58091DA12B2
:102D50009091DB12009711F58091DC128823F1F439
:102D60008091DD128130D1F48091DE128F3FB1F479
:102D7000E2EDF2E1DF01509780E10D900192815088
:102D8000E1F7E0915608F0E0A2ECB2E1E651FD4E29
:102D900080E101900D928150E1F721C082ED92E136
:102DA0000E943B1220914F08309150082817390794
:102DB00009F05BC0E2EDF2E1DF01509780E10D9098
:102DC00001928150E1F7E0915608F0E0A2ECB2E107
:102DD000E651FD4E80E101900D928150E1F7109295
:102DE000560880E68093BA121092BB121092BD1260
:102DF0001092BC121092BE1288E28093BF128AE336
:102E00008093C0128FEF8093C112A2EEB2E188E8E6
:102E10008093E21211961C92119780EE8093E61235
:102E2000E0914F08F09150081896319680E101909A
:102E30000D928150E1F78AEF92E162E00E947015F5
:102E400080915608C82FD0E0CE51DD4E1B821A82E9
:102E50000E94BB1A809590959B838A8380E590E0C1
:102E60009093AB128093AA1204C01092AB121092EE
:102E7000AA12DF91CF911F910F91FF900895CF93E8
:102E8000DF93EC01CA011092560820E62093BA1293
:102E90001092BB121092BD121092BC122AE3209322
:102EA000C0122FEF2093C112E2EDF2E1611571051E
:102EB000E1F42093D21232E0318313821282158220
:102EC00014821782168211861086128631E03387AB
:102ED0002487DA011D962C911D9725871E962D912A
:102EE0003C911F973787268706C0DB0120E10D90B4
:102EF00001922150E1F7E0915608F0E0E654FD4ED2
:102F000027E820A711A614A615A616A617A6F096C0
:102F1000DC0120E10D9001922150E1F71092BE12E8
:102F20000E943B12009709F053C0209741F0E2EC59
:102F3000F2E180E1099001928150E1F706C082EC54
:102F400092E162ED72E10E94F6138091C2129091BB
:102F5000C312009779F58091C4129091C512009721
:102F600049F58091C6129091C712009719F580918A
:102F7000C8129091C9120097E9F48091CA129091F9
:102F8000CB120097B9F48091CC129091CD1200979A
:102F900089F48091CE129091CF12009759F48091CC
:102FA000D0129091D112009729F41092AB12109286
:102FB000AA1239C088E28093BF128091560890E02F
:102FC00086509D4E61E00E94701580E590E019C02A
:102FD000E2ECF2E11092C3121092C212138212823A
:102FE0001582148217821682118610861386128625
:102FF000158614861786168688E18093BF1280E4B2
:1030000090E09093AB128093AA1280915608C82F3B
:10301000D0E0CE51DD4E1B821A820E94BB1A8095F1
:1030200090959B838A83DF91CF910895BF92CF9231
:10303000DF92EF92FF920F931F93CF93DF93209134
:10304000560830E0F901EA51FD4EE0808091C1124E
:103050008F3F09F0F5C0D901AE51BD4E11968C914C
:103060001197882309F0ECC084818F3F09F4E8C0F0
:1030700040E4B42EBE20E6FE05C08091D2128F3F00
:1030800009F4DEC04091AA125091AB1264E180E0D5
:1030900090E0245D3F4F16C0A654BD4E11967C9122
:1030A0001197772339F490934E0880934D086093DD
:1030B0004C08C6C00C91023009F4CD01770F770F90
:1030C000770F670FD901A60FB11DA417B50720F31D
:1030D00090934E0880934D0860934C08CF0104965E
:1030E0000E943B129093500880934F08009709F07C
:1030F000A7C08091560890E086519D4E0E943D10D9
:1031000090935208809351080E9435106C01C09131
:103110005108D0915208209709F492C000914D08AF
:1031200010914E080115110541F0C8010296B60133
:1031300048E050E00E94C86001C080E090E8F92EAD
:10314000FE209AA1992359F50115110509F478C0BB
:103150008C2D9D2DDC01F801329688E001900D92B6
:103160008150E1F7BB20C1F081E08AA318A26091F1
:1031700078117091791180917A1190917B1128EEDC
:1031800033E040E050E00E941160CE014096BA0169
:10319000A9010E94594A4FC082E08AA34CC0E5FCB5
:1031A00008C0882331F0913009F04AC082E08AA338
:1031B00047C00115110551F02C2D3D2DD901F80105
:1031C000329698E001900D929150E1F7BB20B9F052
:1031D00081E08AA3609178117091791180917A11C0
:1031E00090917B1128EE33E040E050E00E941160A6
:1031F000CE014096BA01A9010E94594A07C00115A3
:10320000110521F0882311F082E08AA3E091510892
:10321000F091520881A1882371F0FF2061F482ECC3
:1032200092E10E94110F90935408809353080097E5
:1032300011F00E94DE0EE0915108F0915208F1A2C7
:103240001092AB121092AA12DF91CF911F910F91A1
:10325000FF90EF90DF90CF90BF900895FB013097E3
:10326000D9F09093AE138093AD13409373145093A1
:1032700074146AEE72E1242F352F213C310514F0CD
:1032800020EC30E0CB01BF01A9010E94D56084E0B1
:103290000E94DA1B0E94560A109274141092731442
:1032A0000895CF92DF92EF92FF920F931F93DF93D7
:1032B000CF93CDB7DEB760970FB6F894DEBF0FBEE1
:1032C000CDBF7C012115310511F1DE011196FC0104
:1032D00080E101900D928150E1F7F701C288D38817
:1032E000D90180E10D9001928150E1F7F701138B34
:1032F000028BC7010E942E19D701FE01319680E191
:1033000001900D928150E1F7F701D38AC28A60964D
:103310000FB6F894DEBF0FBECDBFCF91DF911F91E6
:103320000F91FF90EF90DF90CF9008959C01415056
:103330005040460F571FDB0110C0FC91E0E0119692
:103340008C911197BF01680F711D260F371F26172B
:10335000370710F42F5F3F4F1296A417B50768F395
:10336000A417B50749F49C9180E0280F391F28174E
:10337000390710F42F5F3F4FC90108950F931F9332
:10338000DF93CF9300D0CDB7DEB7009156083091D0
:10339000BE1220E010E0201B310B9091BF12290FCC
:1033A000311D3A83298329813A81A901480F511D92
:1033B000CA0162EC72E140E250E00E949619498134
:1033C0005A81B8016E517D4E0E949619009719F0EE
:1033D000382F292F02C02FEF3FEFC9010F900F9018
:1033E000CF91DF911F910F910895A09156086A2FF8
:1033F00070E0685D7F4FFB01E654FD4E418150E077
:1034000083E0440F551F8A95E1F7495F5F4F22E043
:1034100053C0FC01E60FF71FE654FD4E30813130FA
:1034200009F447C0313018F03336C9F402C02F5FB9
:1034300043C0209357080E946A45009709F046C090
:1034400090915708E0915608F0E0E654FD4EE90FE0
:10345000F11D81A5890F8E5F8093570835C0832F9A
:1034600090E0807C90708038910549F0803C910517
:1034700049F080349105E9F42093570827C0209340
:10348000570806C0209357088091D2128F3F01F150
:1034900030E040E050E02A0F311D411D511D285DF4
:1034A0003F4F4F4F5F4F84E062E00E94DD5982E062
:1034B000089581818E5F280F822F90E04817590769
:1034C0000CF0A7CF2093570880E0089581E008957D
:1034D00081E00895FC014381460F4093B112872F8C
:1034E00099272281280F2093B012A181A093AF12B7
:1034F00050815093AE1230E02817390748F48A2FD4
:103500008F5F8093AF12882319F45F5F5093AE12E0
:10351000842F90E070708617970798F48091B0120E
:103520008F5F8093B012882361F48091AF128F5F18
:103530008093AF12882329F48091AE128F5F80931D
:10354000AE120895BC018091B1139091B2134496CC
:103550000E946A1AE091B113F091B2138091AE12F9
:10356000848B8091AF12858B8091B012868B809175
:10357000B112878B08958AE30E94BE19089586E0F0
:103580000E94BE19089581E10E94BE1908950E940B
:10359000921480E009C0E82FF0E0EE0FFF1FED5914
:1035A000FB4E118210828F5F8830A8F340E08CE2DE
:1035B00090E00DC0242F30E0289FF001299FF00DEE
:1035C000389FF00D1124ED54FC4E15A24F5F44308E
:1035D00088F380E094E0909361088093600840E075
:1035E00089E190E00EC0242F30E0289FF001299F50
:1035F000F00D389FF00D1124EB58FB4E118A108A04
:103600004F5F4C3080F340935E0808950F931F93F3
:10361000CF93DF9380915608882351F1C091AA126D
:10362000D091AB1290E0BC01685D7F4FC617D70701
:1036300038F4109256081092AB121092AA1218C0C9
:10364000C81BD90B8E010852104066547D4E82EE85
:1036500092E1A8010E94DE60D093AB12C093AA123F
:10366000EAEBF2E114839E0128522583109256085A
:10367000DF91CF911F910F9108950F931F93CF93D7
:10368000DF93209160083091610849E150E02F5F9D
:103690003F4FEDE720303E0710F020E030E1B22F41
:1036A000A32F10E012C0C12FD0E0C49FF001C59F2E
:1036B000F00DD49FF00D1124EB58FB4E0088F189DA
:1036C000E02DEA17FB0719F31F5F1C3061F73093F9
:1036D00061082093600810E049E150E019C0012F13
:1036E0000F5F212F30E0249FF001259FF00D349FC4
:1036F000F00D1124EB58FB4EDF015096C089D189A3
:10370000209729F410935E08309749F433C0102FA6
:103710001C3028F310935E08E0E0F0E02BC04091ED
:1037200060085091610854274527542711965C93EF
:103730004E93738B628B009731F480E1EF01199205
:103740008A95E9F707C0EF01DC0180E10D9009924D
:103750008150E1F789E190E0289FD001299FB00DC9
:10376000389FB00D1124AB58BB4E80917311549605
:103770008C935497CF01DF91CF911F910F910895B2
:1037800040E013C0E42FF0E0542F5F5FEE0FFF1F07
:10379000ED59FB4E208131812817390729F44093D8
:1037A0005E08118210820895452F483058F34093E7
:1037B0005E080895BF92CF92DF92EF92FF920F932F
:1037C0001F93CF93DF93C091B113D091B213843084
:1037D00009F480C326EF32E13093B0132093AF1386
:1037E0003093AD122093AC12833079F48DA190E028
:1037F0008F7090708330910509F079C08C8D9D8D0C
:10380000009711F00C94642491C0823009F092C0AA
:103810001092AB121092AA12109274141092731498
:1038200080915B088F5F80935B08882399F4809177
:103830005A088F5F80935A08882361F48091590851
:103840008F5F80935908882329F4809158088F5FEF
:10385000809358088DA1873011F0853051F48EA1E6
:103860008F5F8EA3883711F00C9464241DA20C94F2
:103870006424882311F40C9464242C8D3D8D21152F
:10388000310509F44FC09EA1292F21502EA3992361
:1038900011F00C9464249FA1983031F0282F21500E
:1038A000223048F4953039F41DA280E88093AA13A1
:1038B0000E944C0CF2C6953048F423E030E0092E0B
:1038C00002C0220F331F0A94E2F701C020E32EA3A7
:1038D0009F5F9FA390E08F70907083309105E1F01F
:1038E000843091054CF48130910509F4BFC48230D5
:1038F000910509F0E9C70DC08630910509F469C644
:103900008830910509F465C68430910509F0DCC75B
:1039100060C61092EF12ADC484E08093AA130E9497
:103920004C0CEDC68F70833009F0CEC788E08093D1
:10393000AA13A8C6853019F5E091AD13F091AE1326
:1039400080899189009709F4BFC71092B213109231
:10395000B1132C5030403093B0132093AF133093F9
:10396000AD122093AC121092741410927314109232
:10397000AB121092AA1288E08093AA13A9C2E9019F
:10398000EC978091BA12807F803609F09DC79091A4
:10399000BE1280E02091BF12820F911D2091AA12C9
:1039A0003091AB122817390708F48EC78896909388
:1039B000AB128093AA128091C2128F3F09F484C780
:1039C000CE0106969093AC138093AB1310925608D9
:1039D000109255088091C0128823F9F481E08093F9
:1039E00055080E94F519813009F46EC7813018F02E
:1039F000823099F471C780915608E82FF0E0EE51BB
:103A0000FD4EF093AC13E093AB13885F9181990F57
:103A1000990F990F890F8093560882ED92E10E94C9
:103A20003B12009709F01CC182ED92E10E94401305
:103A3000009709F015C12091D2122F3F09F495C0CB
:103A40002E3F29F48091D312803809F48EC08091E2
:103A5000C2128E3F29F48091C312803809F485C0C8
:103A60008091C2129091C312009759F58091C412AF
:103A70009091C512009729F58091C6129091C712B6
:103A80000097F9F48091C8129091C9120097C9F477
:103A90008091CA129091CB12009799F48091CC1228
:103AA0009091CD12009769F48091CE129091CF122F
:103AB000009739F48091D0129091D112009709F4B7
:103AC00054C08091D2129091D312009761F58091E9
:103AD000D4129091D512009731F58091D612909121
:103AE000D712009701F58091D8129091D9120097C2
:103AF000D1F48091DA129091DB120097A1F48091B9
:103B0000DC129091DD12009771F48091DE12909199
:103B1000DF12009741F48091E012882321F4809114
:103B2000E112813011F18091AA129091AB1225E03F
:103B30008130920738F082E060E020E035E040E03C
:103B400050E009C08091C112823040F483E060E00F
:103B500020E030E0A9010E94DD59BEC60E94D14597
:103B60008091C11281508F83B7C68091C2128E3F5F
:103B700009F0AAC68091C312803809F0A5C68091C9
:103B8000C2129091C312009759F58091C41290917E
:103B9000C512009729F58091C6129091C71200971F
:103BA000F9F48091C8129091C9120097C9F48091DC
:103BB000CA129091CB12009799F48091CC129091F7
:103BC000CD12009769F48091CE129091CF12009798
:103BD00039F48091D0129091D112009709F474C6F3
:103BE0008091D2129091D312009769F58091D412EE
:103BF0009091D512009739F58091D6129091D712F5
:103C0000009709F58091D8129091D9120097D9F4B4
:103C10008091DA129091DB120097A9F48091DC1266
:103C20009091DD12009779F48091DE129091DF126D
:103C3000009749F48091E012882329F48091E112E1
:103C4000813009F441C62F3F09F43EC682ED92E16E
:103C50000E940B12882309F037C681E062E078CF1A
:103C6000E091AB13F091AC1380818B32E9F18C328F
:103C700048F4863009F482C1813109F49DC088235B
:103C800089F059C08A3309F460C08B3320F48C3238
:103C900009F051C019C68B3309F416C68C3309F0EC
:103CA0004AC006C08091550880FD45C0816009C0AA
:103CB0008091550881FF04C086FD3DC0806401C02D
:103CC0008260809355080E94F519813009F4FCC583
:103CD000813018F0823021F6FFC580915608E82F18
:103CE000F0E0EE51FD4E1AC08091550882FD23C0D0
:103CF00084608093550880915608282F30E0F901A0
:103D0000EE51FD4E9381992349F0265D3F4F4427A4
:103D100037FD4095542F84E060E01DCFF093AC1345
:103D2000E093AB13885F9181990F990F990F890FD9
:103D30008093560895CFEA5BF2419F01442737FDF7
:103D40004095542F84E061E006CF0E94BB1AEFEF4C
:103D50008F3F9E0709F0B8C5E0915608F0E0EE519C
:103D6000FD4E80818638E1F0873838F48138C1F023
:103D70008538B1F08038A1F410C0883841F0883817
:103D800018F08B3969F406C00E9487150DC00E9497
:103D900016180AC00E949A3F07C00E94385904C0F2
:103DA0001092AB121092AA128091AA129091AB12AB
:103DB000009709F489C590C50E94061B8091AA123C
:103DC0009091AB12C0979093AB128093AA128AEE97
:103DD00092E19093B0138093AF138091E812909189
:103DE000E912009739F00E94C31AFFEF8F3F9F0737
:103DF00009F06AC50091E4121091E5120115110550
:103E000009F462C585E794E19093AE138093AD13F6
:103E100040C0888999890097B9F108171907A1F559
:103E20008A899B89009739F02091E2123091E31240
:103E30002817390749F5888199810097E1F48A812B
:103E40009B810097C1F48C819D810097A1F48E81A4
:103E50009F81009781F488859985009761F48A8510
:103E60009B85009741F48C859D85009721F48E8574
:103E70009F850097C1F082EC92E1BE0140E150E0E5
:103E80000E94C860009779F06996D093AE13C093F2
:103E9000AD13C091AD13D091AE1325E1C13AD20755
:103EA00008F4B7CF11C51092B2131092B11382E08B
:103EB0008093AA138AEE92E19093B0138093AF138C
:103EC0009093AD128093AC121092741410927314EC
:103ED0000E944C0C8091731490917414009709F413
:103EE000F3C49C01205D3F4F3093AB122093AA1284
:103EF00008969093BE1228522093BF12E091AD1302
:103F0000F091AE1324892093C11221E12093C012B5
:103F1000C2EED2E19827892798279D838C831F8240
:103F20001E82808991899093E3128093E2128289A4
:103F300093899B838A83DE01509780E101900D92E3
:103F40008150E1F782EC92E162ED72E10E94F6139A
:103F500086EF92E19093B0138093AF130E941A47BB
:103F60000E94C31A809590959F838E83009709F0D5
:103F7000A1C48FEF9FEF9F838E839CC40E94061B7A
:103F80000E94BF1AEFEF8F3F9E0709F09DC402EE1B
:103F900012E1E090E412F090E512E114F10409F46A
:103FA00093C4C090E212D090E312C114D10409F47A
:103FB0008BC4C3EBD3E1BDA0BB20A1F08889998954
:103FC000E816F90679F48A899B89C816D90651F44E
:103FD00082EC92E1BE0140E150E00E94C86000978F
:103FE00009F45DC1AC96F4E1C336DF0721F7809197
:103FF000EF128F738230B9F4F0925D08E0925C08A2
:1040000020E00DC0E22FF0E0EE0FFF1FED59FB4E58
:10401000808191812F5FE816F90609F45FC028308E
:1040200088F320935E088091EF1282FD4DC484E1F5
:10403000F80185878CE390E09093AB128093AA12ED
:1040400080E584878091E9129091ED1297833091F9
:10405000E8129091EC12968332872091E7129091AA
:10406000EB12958321879091E61290935E08409120
:10407000EA12448390878F5F8387882361F4832FBC
:104080008F5F8287882339F4822F8F5F818788230F
:1040900011F49F5F90878091E2129091E3129093C8
:1040A0005D0880935C082091E4123091E512309312
:1040B000E3122093E212F80193838283E2EDF2E1AE
:1040C000DF01509780E10D9001928150E1F782EC81
:1040D00092E162ED72E10E94F613D0C310925E0885
:1040E00040E0C0E0D0E08CE290E026C0242F30E039
:1040F000289FF001299FF00D389FF00D1124ED54F9
:10410000FC4E25A1222321F440935E08EF0118C044
:10411000273089F4209721F036A12EA1231758F4D7
:10412000242F30E0289FE001299FD00D389FD00D2B
:104130001124CD54DC4E4F5F4430C0F240935E08F2
:10414000209709F4C1C3D093B213C093B11383E095
:104150008EA38CA31AA284E08BA31FA28091E412E9
:104160009091E512998B888B8091E2129091E312E5
:104170009B8B8A8BDE01E2ECF2E180E101900D92F3
:104180008150E1F781E08DA380915808888F80915C
:104190005908898F80915A088A8F80915B088B8F8C
:1041A00081E090E09D8F8C8F8091E9128F8B8091C0
:1041B000E8128E8B8091E7128D8B8091E6128C8BAA
:1041C00081E090E00E94A21A8091EE12282F30E048
:1041D000207F3070213531050CF448C082958F70F6
:1041E00090E00597880F991F880F991F50915F08DD
:1041F00040E033C0F901E654FD4E54AD552329F497
:1042000040935E0810925F0831C0513011F44F5F47
:1042100024C05230D9F465AD6430C1F440935E08D7
:1042200050935F0836AD20E087AD90E0822B932B52
:1042300090935D0880935C088133910510F080E3D2
:1042400090E09F8F8E8F99A388A310C029503D4E78
:10425000F9012081222331F0420F242F30E028176A
:10426000390744F240935E0850935F0880E18093E1
:10427000EF12E2EEF2E18091EF128260858782E038
:10428000848B84E0858B168A80E3878B80E490E0C2
:104290009093AB128093AA1280E68487B6C2D09323
:1042A000B213C093B1131092AA138091EF1290E051
:1042B00082FF03C01DA280E24FC24091EE124295E0
:1042C0004F70440F440F40935E082091AA12309122
:1042D000AB1228523040241B31093093AB1220938B
:1042E000AA124B2D50E04F7050704230510539F4F6
:1042F000AC014F7350704231510551F429C0413027
:10430000510531F4AC014F7350704230510501F149
:104310002115310531F49C012370307021153105D0
:10432000B9F03091E6122C89321779F43091E71206
:104330002D89321751F43091E8122E89321729F461
:104340003091E9122F89321719F081FD8FCF51C2B8
:1043500084FF4AC06C8D7D8D6115710509F444C0E0
:10436000CE0148960E946A1A3091EA128091AE12EC
:104370003817D1F52091EB128091AF122817A1F5D3
:104380009091EC128091B012981771F58091ED1216
:104390004091B112841741F5388F298F9A8F8B8FF6
:1043A0008FA18823D1F42AA18CA19EA1891B922FD1
:1043B000969596959695891B280F2AA387FD81953A
:1043C0009BA1392F36953695931B980F9BA3822F6F
:1043D000869586958695890F8CA381E08093AA1394
:1043E0008CA18EA31D8E1C8E2DA130E0C9018F7073
:1043F00090708430910509F4B4C18530910564F45E
:1044000082309105C9F1833091050CF0B8C081303C
:10441000910509F059C211C08630910509F4E1C136
:10442000863091050CF4BDC18730910509F4E1C1D6
:104430008830910509F048C289C18091AA1380FF94
:1044400014C083E08DA380E48093AA131D8E1C8E7C
:104450008091AA129091AB12009709F40FC122E447
:104460002093AA130E94A21A09C18091EF128F73A0
:10447000823009F029C2FACE8091AA1380FF74C05D
:104480008091EF128F73823109F06EC08091EE122D
:10449000282F30E0207F3070213531050CF448C0E2
:1044A00082958F7090E00597880F991F880F991F4C
:1044B00050915F0840E033C0F901E654FD4E54AD21
:1044C000552329F440935E0810925F0831C05130A3
:1044D00011F44F5F24C05230D9F465AD6430C1F49B
:1044E00040935E0850935F0836AD20E087AD90E0C2
:1044F000822B932B90935D0880935C088133910508
:1045000010F080E390E09F8F8E8F99A388A310C056
:1045100029503D4EF9012081222331F0420F242FF2
:1045200030E02817390744F240935E0850935F0843
:1045300083E08DA38091E6128C8B8091E7128D8BA6
:104540008091E8128E8B8091E9128F8B81E090E050
:104550000E94A21A82E48093AA131D8E1C8E1092D0
:10456000AB121092AA128AC080E28093AA130E9412
:104570004C0CE091B113F091B21315A254CD80917F
:10458000EF1280FF2AC024FD28C08C8D9D8D0097DE
:1045900009F09AC18091AA129091AB1201960E94E3
:1045A000A21A2091AA13822F80618093AA1380916E
:1045B000AA129091AB12009719F022612093AA13CE
:1045C0000E944C0C81E090E09D8F8C8F88E08DA341
:1045D0001FA281E18093EF120FC185FF1CC0509193
:1045E000F41240E08091F51290E0842B952B4091DD
:1045F000AF135091B013480F591F5093B01340930D
:10460000AF134091AA125091AB12481B590B509313
:10461000AB124093AA128091AA129091AB1200970C
:1046200049F024FD07C02091AA1322602093AA1309
:104630000E94A21A9091F01280E02091F112820F54
:10464000911D90935D0880935C0828A139A12817DB
:10465000390710F0009721F430935D0820935C082F
:1046600080915C0890915D089F8F8E8F8091AA1336
:1046700090E083709070009709F426C11092741432
:10468000109273140E944C0C8091AA1385FF07C0EE
:1046900010927414109273141DA284E19BCF84FFB6
:1046A0000AC0109274141092731481E090E09D8FF0
:1046B0008C8F84E08CCF2091731430917414211569
:1046C0003105E1F080FF02C01D8E1C8E8C8D9D8D0A
:1046D000009781F48E8D9F8D8217930720F490931D
:1046E00074148093731480917314909174149D8F3B
:1046F0008C8F04C090937414809373141FA28091C4
:10470000AC129091AD129093B0138093AF1380913F
:10471000731490917414009759F08C8D9D8D0097AF
:1047200039F0CC969093AB128093AA1288E10BC01B
:104730008091AA1381FFC8C08CE390E09093AB12E4
:104740008093AA1280E18093EF125CC08091AA133B
:1047500080FFBAC01DA280E18093AA130E944C0C76
:10476000B3C08091AA129091AB12009711F00E94F1
:10477000A21A9091EF128091AA1390FF0BC080FFB4
:1047800006C087E08DA31EA21D8E1C8E19C086E078
:104790008DA316C080FF1EC085E08DA31D8E1C8ECC
:1047A00093C08091AA129091AB12009711F00E94D1
:1047B000A21A8091EF1280FF0DC087E08DA31EA288
:1047C00081E090E00E94A21A80E18093AA130E94E7
:1047D0004C0C0FC08091AA129091AB12009749F433
:1047E00073C08091AA1380FF6FC087E08DA31EA2C3
:1047F0006BC080E1F80185878CE390E09093AB1269
:104800008093AA1280E58093EE1202EE12E18C8969
:10481000F80180878D8981878E8982878F89838738
:10482000888D8483898D85838A8D86838B8D87830C
:1048300086E08093C012888999899093E3128093CF
:10484000E2128A899B8993838283D8015097FE0163
:1048500080E101900D928150E1F782EC92E162EDEE
:1048600072E10E94F6138DA184FF04C0F80117863F
:10487000168604C0F801168680E38787809173113D
:104880008093C1128091AA129091AB129C01285280
:1048900030403093BE1288528093BF12C2EED2E1F4
:1048A0001B8A1A8A198A188A0E94BF1A80959095C5
:1048B000998B888B80E68093BA121092BB1210926B
:1048C000BD121092BC1208C01092AB121092AA1224
:1048D00010925608109255081092AA13DF91CF91AA
:1048E0001F910F91FF90EF90DF90CF90BF900895B0
:1048F000382F292F40E050E076276727762780E081
:1049000090E0CB0177276627262B372B482B592B96
:10491000B901CA010895ECE7F0E01082808180645B
:104920008083EAE7F0E08081877E808380818E60EB
:104930008083089590917C008F71892B80937C00F7
:1049400080917A00877F80937A0080917A008061DD
:1049500080937A0080917A00806C80937A008091B5
:104960007A0086FDFCCF8091780090E0209179005C
:1049700030917A003F7730937A0030E023703070C6
:10498000322F2227282B392BC901089580E063E0BC
:1049900046E00E94815B63E070E080E090E00E946E
:1049A000532808950E948E2884E00E9495280E9432
:1049B000C6240E94E22681E00E9495280E949F273B
:1049C0000E94B6262091A9158091620890916308F3
:1049D000820F911D0E94140A0E94374A0E94E647E6
:1049E00088ED93E060E070E00E949B480E9492098D
:1049F00082E00E9495280E941D2500D000D08BE601
:104A000091E0EDB7FEB79283818380916208909127
:104A10006308948383830E9409610F900F900F9025
:104A20000F9087E00E949D2889E894E00E94CA4880
:104A30000E9469490E94F847FDCFAF92BF92CF9282
:104A4000DF92EF92FF920F931F93DF93CF93CDB737
:104A5000DEB728970FB6F894DEBF0FBECDBFDE01DC
:104A6000119688E0FD0111928A95E9F7E9EAF5E1EE
:104A700088E001900D928150E1F78E010F5F1F4F8A
:104A8000C8010E94A42D00D08BE292E0ADB7BEB762
:104A900012969C938E9311970E94096128E0E22E52
:104AA000F12CEC0EFD1E0F900F9097E2C92E92E0B4
:104AB000D92E16C0F80181918F0100D000D0EDB73A
:104AC000FEB73196ADB7BEB71296DC92CE92119773
:104AD000828313820E9409610F900F900F900F90B4
:104AE0000E151F0539F700D000D0EDB7FEB731968F
:104AF00083E292E0ADB7BEB712969C938E93119766
:104B00008885828313820E9409610F900F900F9015
:104B10000F90E0918D04F0918E04099590913A16D2
:104B200080E020913B167C01E20EF11C8E010F5FAC
:104B30001F4F88E0F80111928A95E9F7C8016AE3EE
:104B400076E10E948C2D8DB79EB742970FB6F894F0
:104B50009EBF0FBE8DBFEDB7FEB7319686EF91E0D9
:104B6000ADB7BEB712969C938E93119789818283BD
:104B700013828A81848315828B81868317828C813C
:104B8000808711868D81828713868E818487158622
:104B90008F81868717868885808B118A0E9409619C
:104BA000EDB7FEB772960FB6F894FEBF0FBEEDBF1D
:104BB0008DEC9BEAB701A8010E94602A8AE10E945D
:104BC0004C2AA2EBB2E1E9EAF5E188E001900D920E
:104BD0008150E1F70E94A74EE091AB04F091AC0444
:104BE0000995E091BF04F091C0040995E091DB04C0
:104BF000F091DC0409950091BD041091BE04C090B1
:104C0000A904D090AA04E090B704F090B804F7018A
:104C10000995009741F0F7010995BC0180E890E003
:104C20000E94EA5F02C060E870E08DB79EB70A9705
:104C30000FB6F8949EBF0FBE8DBFEDB7FEB731968D
:104C400083EC91E0ADB7BEB712969C938E9311970B
:104C500013830283D582C482778366838AE190E0DE
:104C6000918780870E940961EDB7FEB73A960FB62B
:104C7000F894FEBF0FBEEDBF8CEE93E060E070E0F5
:104C80000E949B4800D080EA91E0ADB7BEB7129673
:104C90009C938E9311970E9409610F900F908FEF54
:104CA0000E9459126C018C01EE24FF2486E9A82E83
:104CB00081E0B82E00D000D000D0EDB7FEB731961D
:104CC000ADB7BEB71296BC92AE921197D8011196AD
:104CD0008C9111978283138212968C918483158212
:104CE0000E9409610894E11CF11C0E5F1F4FEDB793
:104CF000FEB736960FB6F894FEBF0FBEEDBFF7E0D5
:104D0000EF16F104B9F600D000D000D0EDB7FEB731
:104D100031968CE891E0ADB7BEB712969C938E9316
:104D20001197D6011F968C911F97828313825096FC
:104D30008C91848315820E940961EDB7FEB7369687
:104D40000FB6F894FEBF0FBEEDBF28960FB6F894CD
:104D5000DEBF0FBECDBFCF91DF911F910F91FF90AE
:104D6000EF90DF90CF90BF90AF900895DF93CF93F7
:104D700000D000D00F92CDB7DEB78FB78983F894FB
:104D800080E090E0BE016E5F7F4F44E050E00E9403
:104D90007E288A819B812EED8D3A920719F48C81B1
:104DA0009D8102C080E090E0909363088093620848
:104DB00089818FBF0F900F900F900F900F90CF9120
:104DC000DF910895F8941092B60016BC83EF87BD6A
:104DD00082E084BD94E095BD95B395BB80936E0051
:104DE0007894089520916408309165088091640852
:104DF0009091650828173907A9F7C90108952091EE
:104E0000A5153091A6154091A7155091A815809130
:104E1000A5159091A615A091A715B091A8152817D2
:104E200039074A075B0759F7B901CA0108951F926C
:104E30000F920FB60F920BB60F9211242F933F9340
:104E40004F935F936F937F938F939F93AF93BF9392
:104E5000EF93FF9380916408909165080196909379
:104E6000650880936408809166088F5F8093660868
:104E70008091660887FF15C0109266088091A5157D
:104E80009091A615A091A715B091A8150196A11D06
:104E9000B11D8093A5159093A615A093A715B09367
:104EA000A8150E94EB08009711F00E94F207FF91ED
:104EB000EF91BF91AF919F918F917F916F915F9192
:104EC0004F913F912F910F900BBE0F900FBE0F90FF
:104ED0001F90189587E090E020E030E0AAE0B0E075
:104EE00060E170E045E650E00C9A1498FD013197BE
:104EF000F1F70C98149AFB013197F1F704992068A7
:104F0000FA013197F1F7009711F4C901089501975B
:104F100036952795E9CF6827792788E090E04CE817
:104F200050E09B013695279560FF04C0B9016427C6
:104F3000752701C0B9010197A1F7CB010895CF9260
:104F4000DF92EF92FF920F931F93DF93CF930F9215
:104F5000CDB7DEB70C9814988FB78983F8940C9A64
:104F6000149889E993E00197F1F70C98149A80E876
:104F700090E00197F1F720B183EF92E00197F1F70C
:104F800024FD5AC0B8E0A3E3EEE6F0E062E170E091
:104F90004AE050E025E730E0A0FF09C00C9A1498E1
:104FA000CA010197F1F70C98149AC90108C00C9A2C
:104FB0001498CF010197F1F70C98149ACB0101973F
:104FC000F1F7B15011F0A695E7CF0E946A276C0166
:104FD00001EB15E178010E946A27D7018E937D01CC
:104FE000BBEAEB16B5E1FB06B1F70E946A277C012C
:104FF00089818FBFE1E0CE16D10401F580E090E019
:1050000061E070E00E948B27D8016E918D0170E005
:105010000E948B27B5E10B3A1B07B1F78E159F0550
:1050200069F41092A9158AE18093AA158CE4809303
:10503000AB1521E030E00BC089818FBF88E0E9EA41
:10504000F5E1DF011D928A95E9F720E030E0C90122
:105050000F90CF91DF911F910F91FF90EF90DF9014
:10506000CF9008951F93182F80916708882349F4E3
:1050700080EC0E94C15B8DE00E94C15B81E0809367
:105080006708812F0E94C15B1A3029F480EC0E94CE
:10509000C15B10926708212F332727FD3095812FA0
:1050A000932F1F91089580E06CE17DE50E94B35B32
:1050B00088E194E090935517809354170895759A5A
:1050C0006D9A3898409881E090E00E949A247598F3
:1050D0006D98089575986D98389A409A81E090E09F
:1050E0000E949A24389840980895819A899A8EE16E
:1050F00090E00E949A248198899808959C01CB01A0
:10510000F999FECFB9010E946963089590916808EA
:105110008091690889270E94CD5B08950E94C65B33
:105120001092680810926908089590916908982B68
:10513000909369080E948628089580959091690847
:105140009823909369080E94862808958091B61547
:1051500090E0FC01EE0FFF1F9695982F88279795FA
:105160008795E80FF91FE954FA4E1082089580914F
:10517000B41590E008951F9911C081E06FE140E0FF
:105180000E94632C982F8151823050F09F3141F062
:10519000913041F081E0923031F402C081E0089515
:1051A00080E0089580E008951F9904C00E94BB2804
:1051B0008823D1F308951F990BC081E06FE140E08F
:1051C0000E94632C813039F021E030E0813129F0F8
:1051D00020E030E002C021E030E0C90108951F9BCB
:1051E00005C02F988DE090E00197F1F782E06FE124
:1051F00040E023E00E947A2C83E090E00197F1F7F1
:105200000895109239161F9907C00E94D4281F993B
:1052100003C00E94EF282F9A0895809139168823A1
:1052200021F00E94BB280E94012980E090E00895AF
:105230001F9909C0282F803108F02FE085E06FE02A
:1052400040E00E947A2C0895F82FE92FAB01862FB9
:105250008E5F87FD0AC02AE638E0C9016F2F7E2FD6
:105260000E94D56020E030E002C02FEF3FEFC9017F
:10527000089581E06FE140E00E94632C08950F9350
:105280001F93182F883049F0863039F0893029F083
:10529000863119F0893109F040C01F9941C00E9440
:1052A000D4280E943929082F181709F43FC0183054
:1052B00021F483B10E94EF2822C0193119F48631FC
:1052C00079F404C0163161F4893151F482E06FE160
:1052D00040E029E00E947A2CE3E0F0E03197F1F71A
:1052E00082E06FE140E0212F0E947A2C083019F40F
:1052F000E9E6F1E002C0E3E0F0E03197F1F70E9467
:105300003929811799F0163019F4813061F40EC0F3
:10531000163149F4813139F409C022E430E008C083
:1053200024E430E005C023E430E002C020E430E0B3
:10533000C9011F910F91089581E0809339161F9B39
:1053400005C02F9881EC9DE00197F1F786E10E945E
:105350003F290E94D428089580913916882311F49A
:105360000E949C2981E090E008950F931F93DF93A2
:10537000CF930F92CDB7DEB780913916882341F0D5
:105380001F992CC00E94BB28882341F110E003C064
:105390000E94AC2911E08FB78983F8940E94D42829
:1053A00088E060E847E021E00E947A2C89E191E002
:1053B0000197F1F700E006C01F9906C081E00E9446
:1053C0002D2C082F07FFF8CF89818FBF112311F0F3
:1053D0000E940D2921E030E006FD02C020E030E00F
:1053E000C9010F90CF91DF911F910F9108958EE029
:1053F0006CE00E94482C8CE260EF44E020E00E94C8
:105400007A2C8CE26EE041E025E00E947A2C8FE25B
:1054100060E80E94482C86E00E942D2C682F8DE2C7
:105420000E94482C85E060E847E021E00E947A2C49
:105430000895CF93DF93CDEFD3E0CE010197F1F73D
:105440000E94162C1092B7151092B6151092B51531
:1054500016982F9881EC9DE00197F1F7169A82E05B
:105460006FE140E023E00E947A2C2197F1F78DE173
:105470000E942D2C8EE10E942D2C0E94F72986E29D
:1054800094E060E070E00E949B480E949C2981E0CB
:1054900090E0DF91CF910895DF93CF930F92CDB736
:1054A000DEB789830E94D42829812093EB0888E005
:1054B0006FE140E00E947A2C0F90CF91DF91089528
:1054C000AF92BF92CF92DF92EF92FF920F931F9312
:1054D000DF93CF9300D0CDB7DEB7282F062F6A0118
:1054E00082E2622F7A8399830E94482C83E2998119
:1054F000692F0E94482C80E2602F0E94482C81E294
:105500007A81672F0E94482CC114D104F1F18601E1
:105510000F5F1F4F8BE2F60160810E94482C7801DB
:105520000894E11CF11C8AE2F60161810E94482C7A
:1055300057010894A11CB11C89E2F80161810E9405
:10554000482C65010894C11CD11C88E2F7016181D7
:105550000E94482C86010F5F1F4F87E2F501618191
:105560000E94482C78010894E11CF11C86E2F601A7
:1055700061810E94482C85E2F80161810E94482CDB
:1055800084E2F70161810E94482C0F900F90CF9127
:10559000DF911F910F91FF90EF90DF90CF90BF9020
:1055A000AF90089586E294E00E94BE4881E0809327
:1055B000B41581E090E00895EF92FF92CF93DF93CE
:1055C0005091B615252F30E0F901EE0FFF1F3695EB
:1055D000322F222737952795E20FF31FE954FA4E11
:1055E0004081442309F471C047FD08C0433030F0C6
:1055F000C42FD0E022976C177D0718F40E94A628CC
:1056000064C0652F70E09B01220F331F7695762FC3
:10561000662777956795260F371F28543A4EB901AC
:1056200050E00E94D5602091B615822F90E0FC01D9
:10563000EE0FFF1F9695982F882797958795E80F6F
:10564000F91FE95CF94E80818093B115822F90E0BB
:10565000FC01EE0FFF1F9695982F88279795879549
:10566000E80FF91FE954FA4E10821092B61580E047
:1056700090E0FC01EE0FFF1F9695982F88279795D5
:105680008795E80FF91FE954FA4E8081882319F0B5
:105690000E94D22A02C01092B41587E00E942D2CDD
:1056A0008093B2159091B315992311F0891710F4D6
:1056B0008093B31580931D1710921E178091B1151A
:1056C00080931B1710921C1702C0C0E0D0E0CE01DF
:1056D000DF91CF91FF90EF9008950F931F93DF9389
:1056E000CF930F92CDB7DEB78C01FC018081918101
:1056F000009729F0F5E08C339F0709F506C08CE38D
:1057000095E0F801918380831FC06238E9F40E941C
:10571000364E8FB78983F8940E94C54D60E870E0DB
:105720000E94DC2A29812FBF1816190644F70E940F
:10573000C04DE091B104F091B2040995E0CFF801B9
:105740001182108283E001C081E00F90CF91DF9140
:105750001F910F9108951F9906C085E06FE040E00A
:105760000E94632C089580E10895FF920F931F9388
:10577000DF93CF930F92CDB7DEB7F82E1F9B05C0F6
:105780002F98E1ECFDE03197F1F70E94D42889E0F1
:105790000E943F29209121173091221721153105B0
:1057A00049F00E94AB2B082F8091211781500E9455
:1057B000182902C000E010E08FB78983F8942F9A6F
:1057C0002F986F2D6E5F8AE698E00E94E52C898104
:1057D0008FBF0E94D42880912117909122170097A3
:1057E00019F0802F0E94182980913916882319F00A
:1057F0000E949C2902C00E94012980E090E00F9045
:10580000CF91DF911F910F91FF900895CF93DF9378
:10581000EB010E9424299C01009721F4CE010E94F3
:10582000B52B9C01C901DF91CF910895279A0E9A5B
:1058300085B1836085B984B1876084B9239880E598
:105840008CBD81E08DBD81E480938100B59AEFE647
:10585000F0E08081806280830895DF93CF930F9280
:10586000CDB7DEB780689FB79983F89428988EBD2E
:105870000DB407FEFDCF8EB51EBC0DB407FEFDCFE7
:105880008EB5289A99819FBF0F90CF91DF9108958F
:10589000DF93CF930F92CDB7DEB7806C9FB799831C
:1058A000F89428988EBD0DB407FEFDCF8EB56EBD61
:1058B0000DB407FEFDCF8EB5289A89818FBF0F905A
:1058C000CF91DF910895DF93CF9300D0CDB7DEB7AE
:1058D0004A8369830E942D2C6981862390E04A8146
:1058E00002C0959587954A95E2F70F900F90CF915A
:1058F000DF9108951F93DF93CF9300D000D0CDB7F1
:10590000DEB7182F2C834B836A830E942D2C89834A
:1059100099816A81862F8095892389832C8130E043
:105920004B8102C0220F331F4A95E2F7622389811F
:10593000682B812F0E94482C0F900F900F900F9092
:10594000CF91DF911F910895DF93CF930F92CDB741
:10595000DEB7FC018FB78983F894289880E28EBD6A
:105960000DB407FEFDCF8EB51EBC0DB407FEFDCFF6
:105970008EB5982F93509D3748F01082DF01A058C4
:10598000BF4F1C92EF57FF4F108218C0DF011196D6
:1059900080831EBC0DB407FEFDCF9EB59D931EBC3B
:1059A0000DB407FEFDCF8150C1F78EB5DF01A058C1
:1059B000BF4F8C93EF57FF4F81E08083289A8981F6
:1059C0008FBF0F90CF91DF910895DF93CF930F9208
:1059D000CDB7DEB7FC018FB78983F894289880E6AD
:1059E0008EBD0DB407FEFDCF8EB56EBD0DB407FEA6
:1059F000FDCF8EB5CF0101966350860F911D219189
:105A00002EBD0DB407FEFDCF2EB5E817F907B9F787
:105A1000289A89818FBF0F90CF91DF9108951F92AF
:105A20000F920FB60F920BB60F9211242F933F9344
:105A30004F935F936F937F938F939F93AF93BF9396
:105A4000EF93FF93DF93CF9300D0CDB7DEB78FB73F
:105A50008A83F89428988FE88EBD0DB407FEFDCF99
:105A60001EBC0DB407FEFDCF2EB5289A8A818FBFCC
:105A7000822F90E022FD39C023FF27C081E00E94E1
:105A80002D2C8F7189838981813149F089818630FC
:105A900031F08981813019F08981863131F5209189
:105AA000B51530E0C901880F991F3695322F22278E
:105AB00037952795820F931F89549A4E0E94A42CE4
:105AC0001092B5150E94D22A10C026FD0EC0837018
:105AD0009070009751F427FF08C08EE00E942D2C93
